:020000040800F2
:100000000000022069260008B9260008B926000869
:10001000B9260008B9260008B9260008000000002B
:10002000000000000000000000000000B9260008E9
:10003000B926000800000000B9260008E109000800
:10004000B9260008B9260008B9260008B926000814
:10005000B9260008B9260008B9260008B926000804
:10006000B9260008B9260008B9260008B9260008F4
:10007000B9260008B9260008B9260008B9260008E4
:10008000B9260008B9260008B9260008B9260008D4
:10009000B9260008B9260008B9260008B9260008C4
:1000A000B9260008B9260008B9260008B9260008B4
:1000B000B9260008B9260008B9260008B9260008A4
:1000C000B9260008B9260008B9260008B926000894
:1000D000B9260008B9260008B9260008B926000884
:1000E000B9260008B9260008B9260008B926000874
:1000F000B9260008B9260008B9260008B926000864
:10010000B9260008B9260008B9260008B926000853
:10011000B9260008B9260008B9260008B926000843
:10012000B9260008B9260008B9260008B926000833
:10013000B92600080000000000000000B9260008F1
:10014000B9260008B9260008B9260008B926000813
:10015000B9260008B9260008B9260008B926000803
:10016000B9260008B9260008B9260008B9260008F3
:10017000B9260008B9260008B926000800000000CA
:10018000000000000000000000000000000000006F
:10019000B92600080000000000000000B926000891
:1001A000000000000000000000000000B926000868
:1001B000B9260008B9260008B9260008B9260008A3
:0401C000B926000854
:1001C40010B5054C237833B9044B13B10448AFF38D
:1001D40000800123237010BD0000002000000000F7
:1001E4000427000808B5034B1BB103490348AFF3C8
:1001F400008008BD0000000004000020042700085F
:1002040081F0004102E000BF83F0004330B54FEAC3
:1002140041044FEA430594EA050F08BF90EA020F30
:100224001FBF54EA000C55EA020C7FEA645C7FEAC3
:10023400655C00F0E2804FEA5454D4EB5555B8BFE6
:100244006D420CDD2C4480EA020281EA030382EA57
:10025400000083EA010180EA020281EA0303362DE9
:1002640088BF30BD11F0004F4FEA01314FF4801CBC
:100274004CEA113102D0404261EB410113F0004FCE
:100284004FEA03334CEA133302D0524263EB430385
:1002940094EA050F00F0A780A4F10104D5F1200E23
:1002A4000DDB02FA0EFC22FA05F2801841F100017E
:1002B40003FA0EF2801843FA05F359410EE0A5F152
:1002C40020050EF1200E012A03FA0EFC28BF4CF083
:1002D400020C43FA05F3C01851EBE37101F0004539
:1002E40007D54FF0000EDCF1000C7EEB00006EEB46
:1002F4000101B1F5801F1BD3B1F5001F0CD34908D0
:100304005FEA30004FEA3C0C04F101044FEA445226
:1003140012F5800F80F09A80BCF1004F08BF5FEAAD
:10032400500C50F1000041EB045141EA050130BD8D
:100334005FEA4C0C404141EB0101013C28BFB1F59F
:10034400801FE9D291F0000F04BF01460020B1FAEA
:1003540081F308BF2033A3F10B03B3F120020CDABD
:100364000C3208DD02F1140CC2F10C0201FA0CF09B
:1003740021FA02F10CE002F11402D8BFC2F1200C00
:1003840001FA02F120FA0CFCDCBF41EA0C019040B6
:10039400E41AA2BF01EB0451294330BD6FEA0404FF
:1003A4001F3C1CDA0C340EDC04F11404C4F12002EA
:1003B40020FA04F001FA02F340EA030021FA04F3FC
:1003C40045EA030130BDC4F10C04C4F1200220FA53
:1003D40002F001FA04F340EA0300294630BD21FA91
:1003E40004F0294630BD94F0000F83F4801306BF57
:1003F40081F480110134013D4EE77FEA645C18BF4B
:100404007FEA655C29D094EA050F08BF90EA020FE1
:1004140005D054EA000C04BF1946104630BD91EAD9
:10042400030F1EBF0021002030BD5FEA545C05D1DC
:100434004000494128BF41F0004130BD14F580041B
:100444003CBF01F5801130BD01F0004545F0FE418F
:1004540041F470014FF0000030BD7FEA645C1ABFC4
:10046400194610467FEA655C1CBF0B46024650EAFB
:10047400013406BF52EA033591EA030F41F4002127
:1004840030BD00BF90F0000F04BF0021704730B5AD
:100494004FF4806404F132044FF000054FF0000182
:1004A40050E700BF90F0000F04BF0021704730B543
:1004B4004FF4806404F1320410F0004548BF404218
:1004C4004FF000013EE700BF42004FEAE2014FEA6D
:1004D40031014FEA02701FBF12F07F4393F07F4F48
:1004E40081F06051704732F07F4208BF704793F04B
:1004F4007F4F04BF41F40021704730B54FF460745E
:1005040001F0004521F000411CE700BF50EA010260
:1005140008BF704730B54FF000050AE050EA010209
:1005240008BF704730B511F0004502D5404261EB79
:1005340041014FF4806404F132045FEA915C3FF4BA
:10054400D8AE4FF003025FEADC0C18BF03325FEA57
:10055400DC0C18BF033202EBDC02C2F1200300FA08
:1005640003FC20FA02F001FA03FE40EA0E0021FA2D
:1005740002F11444BDE600BF70B54FF0FF0C4CF41B
:10058400E06C1CEA11541DBF1CEA135594EA0C0FCD
:1005940095EA0C0F00F0DEF82C4481EA030621EA08
:1005A4004C5123EA4C5350EA013518BF52EA033543
:1005B40041F4801143F4801338D0A0FB02CE4FF0F5
:1005C4000005E1FB02E506F00042E0FB03E54FF025
:1005D4000006E1FB03569CF0000F18BF4EF0010E1D
:1005E400A4F1FF04B6F5007F64F5407404D25FEA19
:1005F4004E0E6D4146EB060642EAC62141EA5551CC
:100604004FEAC52040EA5E504FEACE2EB4F1FD0C0D
:1006140088BFBCF5E06F1ED8BEF1004F08BF5FEA8B
:10062400500E50F1000041EB045170BD06F000463D
:1006340046EA010140EA020081EA0301B4EB5C04EA
:10064400C2BFD4EB0C0541EA045170BD41F48011E2
:100654004FF0000E013C00F3AB8014F1360FDEBF07
:10066400002001F0004170BDC4F10004203C35DAE3
:100674000C341BDC04F11404C4F1200500FA05F366
:1006840020FA04F001FA05F240EA020001F0004207
:1006940021F0004110EBD37021FA04F642EB06017D
:1006A4005EEA430E08BF20EAD37070BDC4F10C04A7
:1006B400C4F1200500FA04F320FA05F001FA04F26B
:1006C40040EA020001F0004110EBD37041F1000157
:1006D4005EEA430E08BF20EAD37070BDC4F1200562
:1006E40000FA05F24EEA020E20FA04F301FA05F2CA
:1006F40043EA020321FA04F001F0004121FA04F272
:1007040020EA020000EBD3705EEA430E08BF20EA41
:10071400D37070BD94F0000F0FD101F0004640007B
:1007240041EB010111F4801F08BF013CF7D041EAFD
:10073400060195F0000F18BF704703F00046520001
:1007440043EB030313F4801F08BF013DF7D043EAD2
:100754000603704794EA0C0F0CEA135518BF95EA88
:100764000C0F0CD050EA410618BF52EA4306D1D10F
:1007740081EA030101F000414FF0000070BD50EA2E
:10078400410606BF1046194652EA430619D094EAB8
:100794000C0F02D150EA013613D195EA0C0F05D1A2
:1007A40052EA03361CBF104619460AD181EA0301F6
:1007B40001F0004141F0FE4141F470014FF00000AE
:1007C40070BD41F0FE4141F4780170BD70B54FF049
:1007D400FF0C4CF4E06C1CEA11541DBF1CEA1355C9
:1007E40094EA0C0F95EA0C0F00F0A7F8A4EB0504AB
:1007F40081EA030E52EA03354FEA013100F08880A2
:100804004FEA03334FF0805545EA131343EA12636A
:100814004FEA022245EA111545EA10654FEA00261F
:100824000EF000419D4208BF964244F1FD0404F5D8
:10083400407402D25B084FEA3202B61A65EB030534
:100844005B084FEA32024FF480104FF4002CB6EBF1
:10085400020E75EB030E22BFB61A754640EA0C0071
:100864005B084FEA3202B6EB020E75EB030E22BFB1
:10087400B61A754640EA5C005B084FEA3202B6EBF2
:10088400020E75EB030E22BFB61A754640EA9C00B1
:100894005B084FEA3202B6EB020E75EB030E22BF81
:1008A400B61A754640EADC0055EA060E18D04FEA3F
:1008B400051545EA16754FEA06164FEAC30343EADF
:1008C40052734FEAC2025FEA1C1CC0D111F4801FAC
:1008D4000BD141EA00014FF000004FF0004CB6E7A5
:1008E40011F4801F04BF01430020B4F1FD0C88BF44
:1008F400BCF5E06F3FF6AFAEB5EB030C04BFB6EB4F
:10090400020C5FEA500C50F1000041EB045170BD41
:100914000EF0004E4EEA113114EB5C04C2BFD4EB6E
:100924000C0541EA045170BD41F480114FF0000EF2
:10093400013C90E645EA060E8DE60CEA135594EA6E
:100944000C0F08BF95EA0C0F3FF43BAF94EA0C0F71
:100954000AD150EA01347FF434AF95EA0C0F7FF4E6
:1009640025AF104619462CE795EA0C0F06D152EA3A
:1009740003353FF4FDAE1046194622E750EA41061E
:1009840018BF52EA43067FF4C5AE50EA41047FF42F
:100994000DAF52EA43057FF4EBAE12E74A0011D2E1
:1009A40012F5001211D20DD56FF47873B3EB6252C5
:1009B4000ED44FEAC12343F0004343EA505323FAD1
:1009C40002F070474FF00000704750EA013002D146
:1009D4004FF0FF3070474FF00000704780B400AF15
:1009E400044B1B680133034A136000BFBD4680BC3F
:1009F400704700BF1C00002080B483B000AF786053
:100A04007B689B79002B1FD17B681B681A687B6805
:100A14001B795B00012101FA03F3DB4319467B6870
:100A24001B680A401A607B681B681A687B681B791C
:100A34005B000133012101FA03F3DB4319467B68B0
:100A44001B680A401A6066E07B689B79012B1ED103
:100A54007B681B681A687B681B795B00012101FABB
:100A640003F319467B681B680A431A607B681B689A
:100A74001A687B681B795B000133012101FA03F3D7
:100A8400DB4319467B681B680A401A6043E07B68B5
:100A94009B79022B1ED17B681B681A687B681B79C3
:100AA4005B00012101FA03F3DB4319467B681B68F1
:100AB4000A401A607B681B681A687B681B795B00B4
:100AC4000133012101FA03F319467B681B680A43C9
:100AD4001A6020E07B689B79032B1CD17B681B6820
:100AE4001A687B681B795B00012101FA03F319463C
:100AF4007B681B680A431A607B681B681A687B68FA
:100B04001B795B000133012101FA03F319467B6869
:100B14001B680A431A6000BF0C37BD4680BC70478F
:100B240080B483B000AF78607B685B7A002B0ED111
:100B34007B681B685A687B681B79194601238B40C4
:100B4400DB4319467B681B680A405A6010E07B68E7
:100B54005B7A012B0CD17B681B685A687B681B7914
:100B6400194601238B4019467B681B680A435A6067
:100B740000BF0C37BD4680BC704780B483B000AF63
:100B840078607B68DB79002B1FD17B681B68DA688F
:100B94007B681B795B00012101FA03F3DB431946EF
:100BA4007B681B680A40DA607B681B68DA687B68CC
:100BB4001B795B000133012101FA03F3DB4319467E
:100BC4007B681B680A40DA6044E07B68DB79012BB0
:100BD4001ED17B681B68DA687B681B795B00012186
:100BE40001FA03F319467B681B680A43DA607B68E1
:100BF4001B68DA687B681B795B000133012101FA09
:100C040003F3DB4319467B681B680A40DA6021E082
:100C14007B68DB79022B1DD17B681B68DA687B68F3
:100C24001B795B00012101FA03F3DB4319467B685E
:100C34001B680A40DA607B681B68DA687B681B798A
:100C44005B000133012101FA03F319467B681B6839
:100C54000A43DA6000BF0C37BD4680BC704790B5CC
:100C640089B000AFF860B96011461A460B46FB71B3
:100C74001346BB71BB687B61BB79BB7697F8343094
:100C8400FB7697F830307B77FB793B7607F11403DA
:100C94001846FFF7B1FE07F114031846FFF76DFF7E
:100CA40007F114031846FFF73BFFFB681C4607F1E6
:100CB400140393E8070084E80700F8682437BD4666
:100CC40090BD80B483B000AF78600B46FB707B6846
:100CD4001B79072B00F22184FB78002B40D17B6821
:100CE4001B681A6A7B681B799B00012101FA03F3D4
:100CF400DB4319467B681B680A401A627B681B68E1
:100D04001A6A7B681B799B000133012101FA03F302
:100D1400DB4319467B681B680A401A627B681B68C0
:100D24001A6A7B681B799B000233012101FA03F3E1
:100D3400DB4319467B681B680A401A627B681B68A0
:100D44001A6A7B681B799B000333012101FA03F3C0
:100D5400DB4319467B681B680A401A6201F02DB810
:100D6400FB78012B3FD17B681B681A6A7B681B796F
:100D74009B00012101FA03F319467B681B680A43AF
:100D84001A627B681B681A6A7B681B799B000133B3
:100D9400012101FA03F3DB4319467B681B680A400F
:100DA4001A627B681B681A6A7B681B799B00023392
:100DB400012101FA03F3DB4319467B681B680A40EF
:100DC4001A627B681B681A6A7B681B799B00033371
:100DD400012101FA03F3DB4319467B681B680A40CF
:100DE4001A6200F0EABFFB78022B3FD17B681B68D4
:100DF4001A6A7B681B799B00012101FA03F3DB4328
:100E040019467B681B680A401A627B681B681A6A69
:100E14007B681B799B000133012101FA03F3194616
:100E24007B681B680A431A627B681B681A6A7B68C2
:100E34001B799B000233012101FA03F3DB431946BA
:100E44007B681B680A401A627B681B681A6A7B68A5
:100E54001B799B000333012101FA03F3DB43194699
:100E64007B681B680A401A6200F0A7BFFB78032B5B
:100E74003ED17B681B681A6A7B681B799B00012141
:100E840001FA03F319467B681B680A431A627B68FC
:100E94001B681A6A7B681B799B000133012101FAE4
:100EA40003F319467B681B680A431A627B681B6854
:100EB4001A6A7B681B799B000233012101FA03F350
:100EC400DB4319467B681B680A401A627B681B680F
:100ED4001A6A7B681B799B000333012101FA03F32F
:100EE400DB4319467B681B680A401A6200F065BF41
:100EF400FB78042B3FD17B681B681A6A7B681B79DB
:100F04009B00012101FA03F3DB4319467B681B684C
:100F14000A401A627B681B681A6A7B681B799B000B
:100F24000133012101FA03F3DB4319467B681B6893
:100F34000A401A627B681B681A6A7B681B799B00EB
:100F44000233012101FA03F319467B681B680A4343
:100F54001A627B681B681A6A7B681B799B000333DF
:100F6400012101FA03F3DB4319467B681B680A403D
:100F74001A6200F022BFFB78052B3ED17B681B6808
:100F84001A6A7B681B799B00012101FA03F3194655
:100F94007B681B680A431A627B681B681A6A7B6851
:100FA4001B799B000133012101FA03F3DB4319464A
:100FB4007B681B680A401A627B681B681A6A7B6834
:100FC4001B799B000233012101FA03F319467B6864
:100FD4001B680A431A627B681B681A6A7B681B7960
:100FE4009B000333012101FA03F3DB4319467B68B9
:100FF4001B680A401A6200F0E0BEFB78062B3ED163
:101004007B681B681A6A7B681B799B00012101FAC3
:1010140003F3DB4319467B681B680A401A627B684A
:101024001B681A6A7B681B799B000133012101FA52
:1010340003F319467B681B680A431A627B681B68C2
:101044001A6A7B681B799B000233012101FA03F3BE
:1010540019467B681B680A431A627B681B681A6A14
:101064007B681B799B000333012101FA03F3DB4303
:1010740019467B681B680A401A6200F09EBEFB7822
:10108400072B3DD17B681B681A6A7B681B799B0020
:10109400012101FA03F319467B681B680A431A62AB
:1010A4007B681B681A6A7B681B799B0001330121EA
:1010B40001FA03F319467B681B680A431A627B68CA
:1010C4001B681A6A7B681B799B000233012101FAB1
:1010D40003F319467B681B680A431A627B681B6822
:1010E4001A6A7B681B799B000333012101FA03F31D
:1010F400DB4319467B681B680A401A6200F05DBE38
:10110400FB78082B3FD17B681B681A6A7B681B79C4
:101114009B00012101FA03F3DB4319467B681B683A
:101124000A401A627B681B681A6A7B681B799B00F9
:101134000133012101FA03F3DB4319467B681B6881
:101144000A401A627B681B681A6A7B681B799B00D9
:101154000233012101FA03F3DB4319467B681B6860
:101164000A401A627B681B681A6A7B681B799B00B9
:101174000333012101FA03F319467B681B680A4310
:101184001A6200F01ABEFB78092B3ED17B681B68FB
:101194001A6A7B681B799B00012101FA03F3194643
:1011A4007B681B680A431A627B681B681A6A7B683F
:1011B4001B799B000133012101FA03F3DB43194638
:1011C4007B681B680A401A627B681B681A6A7B6822
:1011D4001B799B000233012101FA03F3DB43194617
:1011E4007B681B680A401A627B681B681A6A7B6802
:1011F4001B799B000333012101FA03F319467B6831
:101204001B680A431A6200F0D8BDFB780A2B3ED152
:101214007B681B681A6A7B681B799B00012101FAB1
:1012240003F3DB4319467B681B680A401A627B6838
:101234001B681A6A7B681B799B000133012101FA40
:1012440003F319467B681B680A431A627B681B68B0
:101254001A6A7B681B799B000233012101FA03F3AC
:10126400DB4319467B681B680A401A627B681B686B
:101274001A6A7B681B799B000333012101FA03F38B
:1012840019467B681B680A431A6200F096BDFB7816
:101294000B2B3DD17B681B681A6A7B681B799B000A
:1012A400012101FA03F319467B681B680A431A6299
:1012B4007B681B681A6A7B681B799B0001330121D8
:1012C40001FA03F319467B681B680A431A627B68B8
:1012D4001B681A6A7B681B799B000233012101FA9F
:1012E40003F3DB4319467B681B680A401A627B6878
:1012F4001B681A6A7B681B799B000333012101FA7E
:1013040003F319467B681B680A431A6200F055BD53
:10131400FB780C2B3ED17B681B681A6A7B681B79AF
:101324009B00012101FA03F3DB4319467B681B6828
:101334000A401A627B681B681A6A7B681B799B00E7
:101344000133012101FA03F3DB4319467B681B686F
:101354000A401A627B681B681A6A7B681B799B00C7
:101364000233012101FA03F319467B681B680A431F
:101374001A627B681B681A6A7B681B799B000333BB
:10138400012101FA03F319467B681B680A431A62B8
:1013940000F013BDFB780D2B3DD17B681B681A6AE6
:1013A4007B681B799B00012101FA03F319467B68D2
:1013B4001B680A431A627B681B681A6A7B681B797C
:1013C4009B000133012101FA03F3DB4319467B68D7
:1013D4001B680A401A627B681B681A6A7B681B795F
:1013E4009B000233012101FA03F319467B681B6851
:1013F4000A431A627B681B681A6A7B681B799B0024
:101404000333012101FA03F319467B681B680A437D
:101414001A6200F0D2BCFB780E2B3DD17B681B68AE
:101424001A6A7B681B799B00012101FA03F3DB43F1
:1014340019467B681B680A401A627B681B681A6A33
:101444007B681B799B000133012101FA03F31946E0
:101454007B681B680A431A627B681B681A6A7B688C
:101464001B799B000233012101FA03F319467B68BF
:101474001B680A431A627B681B681A6A7B681B79BB
:101484009B000333012101FA03F319467B681B68AF
:101494000A431A6200F091BCFB780F2B40F08D8454
:1014A4007B681B681A6A7B681B799B00012101FA1F
:1014B40003F319467B681B680A431A627B681B683E
:1014C4001A6A7B681B799B000133012101FA03F33B
:1014D40019467B681B680A431A627B681B681A6A90
:1014E4007B681B799B000233012101FA03F319463F
:1014F4007B681B680A431A627B681B681A6A7B68EC
:101504001B799B000333012101FA03F319467B681D
:101514001B680A431A6200F050BCFB78002B44D1CC
:101524007B681B685A6A7B681B79083B9B00012116
:1015340001FA03F3DB4319467B681B680A405A62CD
:101544007B681B685A6A7B681B79083B9B000133E4
:10155400012101FA03F3DB4319467B681B680A4047
:101564005A627B681B685A6A7B681B79083B9B003C
:101574000233012101FA03F3DB4319467B681B683C
:101584000A405A627B681B685A6A7B681B79083B6D
:101594009B000333012101FA03F3DB4319467B6803
:1015A4001B680A405A6200F008BCFB78012B42D148
:1015B4007B681B685A6A7B681B79083B9B00012186
:1015C40001FA03F319467B681B680A435A627B6875
:1015D4001B685A6A7B681B79083B9B000133012115
:1015E40001FA03F3DB4319467B681B680A405A621D
:1015F4007B681B685A6A7B681B79083B9B00023333
:10160400012101FA03F3DB4319467B681B680A4096
:101614005A627B681B685A6A7B681B79083B9B008B
:101624000333012101FA03F3DB4319467B681B688A
:101634000A405A62C1E3FB78022B42D17B681B68E3
:101644005A6A7B681B79083B9B00012101FA03F36A
:10165400DB4319467B681B680A405A627B681B6837
:101664005A6A7B681B79083B9B000133012101FA0C
:1016740003F319467B681B680A435A627B681B683C
:101684005A6A7B681B79083B9B000233012101FAEB
:1016940003F3DB4319467B681B680A405A627B6884
:1016A4001B685A6A7B681B79083B9B000333012142
:1016B40001FA03F3DB4319467B681B680A405A624C
:1016C4007BE3FB78032B41D17B681B685A6A7B68F8
:1016D4001B79083B9B00012101FA03F319467B683F
:1016E4001B680A435A627B681B685A6A7B681B79C9
:1016F400083B9B000133012101FA03F319467B687F
:101704001B680A435A627B681B685A6A7B681B79A8
:10171400083B9B000233012101FA03F3DB43194622
:101724007B681B680A405A627B681B685A6A7B683C
:101734001B79083B9B000333012101FA03F3DB43CC
:1017440019467B681B680A405A6236E3FB78042B0F
:1017540042D17B681B685A6A7B681B79083B9B00F3
:10176400012101FA03F3DB4319467B681B680A4035
:101774005A627B681B685A6A7B681B79083B9B002A
:101784000133012101FA03F3DB4319467B681B682B
:101794000A405A627B681B685A6A7B681B79083B5B
:1017A4009B000233012101FA03F319467B681B688D
:1017B4000A435A627B681B685A6A7B681B79083B38
:1017C4009B000333012101FA03F3DB4319467B68D1
:1017D4001B680A405A62F0E2FB78052B41D17B6812
:1017E4001B685A6A7B681B79083B9B00012101FA3C
:1017F40003F319467B681B680A435A627B681B68BB
:101804005A6A7B681B79083B9B000133012101FA6A
:1018140003F3DB4319467B681B680A405A627B6802
:101824001B685A6A7B681B79083B9B0002330121C1
:1018340001FA03F319467B681B680A435A627B6802
:101844001B685A6A7B681B79083B9B0003330121A0
:1018540001FA03F3DB4319467B681B680A405A62AA
:10186400ABE2FB78062B41D17B681B685A6A7B6824
:101874001B79083B9B00012101FA03F3DB43194662
:101884007B681B680A405A627B681B685A6A7B68DB
:101894001B79083B9B000133012101FA03F319462C
:1018A4007B681B680A435A627B681B685A6A7B68B8
:1018B4001B79083B9B000233012101FA03F319460B
:1018C4007B681B680A435A627B681B685A6A7B6898
:1018D4001B79083B9B000333012101FA03F3DB432B
:1018E40019467B681B680A405A6266E2FB78072B3C
:1018F40040D17B681B685A6A7B681B79083B9B0054
:10190400012101FA03F319467B681B680A435A62F2
:101914007B681B685A6A7B681B79083B9B00013310
:10192400012101FA03F319467B681B680A435A62D2
:101934007B681B685A6A7B681B79083B9B000233EF
:10194400012101FA03F319467B681B680A435A62B2
:101954007B681B685A6A7B681B79083B9B000333CE
:10196400012101FA03F3DB4319467B681B680A4033
:101974005A6222E2FB78082B42D17B681B685A6AC0
:101984007B681B79083B9B00012101FA03F3DB43CD
:1019940019467B681B680A405A627B681B685A6A4E
:1019A4007B681B79083B9B000133012101FA03F397
:1019B400DB4319467B681B680A405A627B681B68D4
:1019C4005A6A7B681B79083B9B000233012101FAA8
:1019D40003F3DB4319467B681B680A405A627B6841
:1019E4001B685A6A7B681B79083B9B0003330121FF
:1019F40001FA03F319467B681B680A435A62DCE167
:101A0400FB78092B41D17B681B685A6A7B681B7978
:101A1400083B9B00012101FA03F319467B681B680C
:101A24000A435A627B681B685A6A7B681B79083BC5
:101A34009B000133012101FA03F3DB4319467B6860
:101A44001B680A405A627B681B685A6A7B681B7968
:101A5400083B9B000233012101FA03F3DB431946DF
:101A64007B681B680A405A627B681B685A6A7B68F9
:101A74001B79083B9B000333012101FA03F3194648
:101A84007B681B680A435A6297E1FB780A2B41D1B1
:101A94007B681B685A6A7B681B79083B9B000121A1
:101AA40001FA03F3DB4319467B681B680A405A6258
:101AB4007B681B685A6A7B681B79083B9B0001336F
:101AC400012101FA03F319467B681B680A435A6231
:101AD4007B681B685A6A7B681B79083B9B0002334E
:101AE400012101FA03F3DB4319467B681B680A40B2
:101AF4005A627B681B685A6A7B681B79083B9B00A7
:101B04000333012101FA03F319467B681B680A4376
:101B14005A6252E1FB780B2B40D17B681B685A6AEE
:101B24007B681B79083B9B00012101FA03F31946EA
:101B34007B681B680A435A627B681B685A6A7B6825
:101B44001B79083B9B000133012101FA03F3194679
:101B54007B681B680A435A627B681B685A6A7B6805
:101B64001B79083B9B000233012101FA03F3DB4399
:101B740019467B681B680A405A627B681B685A6A6C
:101B84007B681B79083B9B000333012101FA03F3B3
:101B940019467B681B680A435A620EE1FB780C2BDA
:101BA40041D17B681B685A6A7B681B79083B9B00A0
:101BB400012101FA03F3DB4319467B681B680A40E1
:101BC4005A627B681B685A6A7B681B79083B9B00D6
:101BD4000133012101FA03F3DB4319467B681B68D7
:101BE4000A405A627B681B685A6A7B681B79083B07
:101BF4009B000233012101FA03F319467B681B6839
:101C04000A435A627B681B685A6A7B681B79083BE3
:101C14009B000333012101FA03F319467B681B6817
:101C24000A435A62C9E0FB780D2B40D17B681B68DC
:101C34005A6A7B681B79083B9B00012101FA03F374
:101C440019467B681B680A435A627B681B685A6A98
:101C54007B681B79083B9B000133012101FA03F3E4
:101C6400DB4319467B681B680A405A627B681B6821
:101C74005A6A7B681B79083B9B000233012101FAF5
:101C840003F319467B681B680A435A627B681B6826
:101C94005A6A7B681B79083B9B000333012101FAD4
:101CA40003F319467B681B680A435A6285E0FB7894
:101CB4000E2B40D17B681B685A6A7B681B79083BF2
:101CC4009B00012101FA03F3DB4319467B681B687F
:101CD4000A405A627B681B685A6A7B681B79083B16
:101CE4009B000133012101FA03F319467B681B6849
:101CF4000A435A627B681B685A6A7B681B79083BF3
:101D04009B000233012101FA03F319467B681B6827
:101D14000A435A627B681B685A6A7B681B79083BD2
:101D24009B000333012101FA03F319467B681B6806
:101D34000A435A6241E0FB780F2B3ED17B681B6853
:101D44005A6A7B681B79083B9B00012101FA03F363
:101D540019467B681B680A435A627B681B685A6A87
:101D64007B681B79083B9B000133012101FA03F3D3
:101D740019467B681B680A435A627B681B685A6A67
:101D84007B681B79083B9B000233012101FA03F3B2
:101D940019467B681B680A435A627B681B685A6A47
:101DA4007B681B79083B9B000333012101FA03F391
:101DB40019467B681B680A435A6200BF0C37BD464C
:101DC40080BC704780B483B000AF0346FB71FB79DD
:101DD400082B00F2F68001A252F823F0051E000839
:101DE400371E0008691E00089B1E0008CD1E00084F
:101DF400FF1E0008311F0008631F0008951F00081C
:101E04007F4B9B687E4A23F0100393607C4B9B6856
:101E14007B4A23F020039360794B9B68784A23F034
:101E240040039360764B9B68754A23F0800393606C
:101E3400E0E0734B9B68724A23F010039360704B8D
:101E44009B686F4A23F0200393606D4B9B686C4A38
:101E540023F0400393606A4B9B68694A43F0800314
:101E64009360C7E0664B9B68654A43F01003936038
:101E7400634B9B68624A23F020039360604B9B682A
:101E84005F4A23F0400393605D4B9B685C4A43F0D8
:101E940080039360AEE05A4B9B68594A23F01003C9
:101EA4009360574B9B68564A43F020039360544B0E
:101EB4009B68534A23F040039360514B9B68504AFC
:101EC40043F08003936095E04D4B9B684C4A43F08C
:101ED400100393604A4B9B68494A43F02003936084
:101EE400474B9B68464A23F040039360444B9B68EE
:101EF400434A43F0800393607CE0414B9B68404A33
:101F040023F0100393603E4B9B683D4A23F020036B
:101F140093603B4B9B683A4A43F040039360384BD1
:101F24009B68374A43F08003936063E0344B9B68BB
:101F3400334A43F010039360314B9B68304A23F0DB
:101F4400200393602E4B9B682D4A43F0400393601B
:101F54002B4B9B682A4A43F0800393604AE0284B4A
:101F64009B68274A23F010039360254B9B68244AFF
:101F740043F020039360224B9B68214A43F04003C3
:101F840093601F4B9B681E4A43F08003936031E0CB
:101F94001B4B9B681A4A43F010039360184B9B68D1
:101FA400174A43F020039360154B9B68144A43F08F
:101FB40040039360124B9B68114A43F08003936083
:101FC40018E00F4B9B680E4A23F0100393600C4BF0
:101FD4009B680B4A23F020039360094B9B68084AD3
:101FE40023F040039360064B9B68054A23F080036B
:101FF400936000BF00BF0C37BD4680BC704700BF74
:102004000038024080B483B000AF0346FB71FB7913
:10201400042B6CD801A252F823F000BF352000082D
:102024005B20000881200008A7200008CD200008BC
:10203400324B9B68314A23F4806393602F4B9B6837
:102044002E4A23F4006393602C4B9B682B4A23F4A1
:10205400805393604CE0294B9B68284A23F48063A7
:102064009360264B9B68254A23F400639360234BBB
:102074009B68224A43F48053936039E01F4B9B686A
:102084001E4A43F4806393601C4B9B681B4A23F4F1
:1020940000639360194B9B68184A43F48053936020
:1020A40026E0164B9B68154A23F480639360134B18
:1020B4009B68124A43F400639360104B9B680F4A79
:1020C40043F48053936013E00C4B9B680B4A43F436
:1020D40080639360094B9B68084A43F400639360F0
:1020E400064B9B68054A43F48053936000E000BFAD
:1020F40000BF0C37BD4680BC704700BF00380240AB
:1021040080B483B000AF0346FB71FB79042B6CD819
:1021140001A252F823F000BF312100085721000822
:102124007D210008A3210008C9210008324B9B68C7
:10213400314A23F4005393602F4B9B682E4A23F4B7
:10214400804393602C4B9B682B4A23F40043936099
:102154004CE0294B9B68284A23F400539360264B98
:102164009B68254A23F480439360234B9B68224A4F
:1021740043F40043936039E01F4B9B681E4A43F4C9
:10218400005393601C4B9B681B4A23F48043936069
:10219400194B9B68184A43F40043936026E0164B9E
:1021A4009B68154A23F400539360134B9B68124AAF
:1021B40043F480439360104B9B680F4A43F40043FD
:1021C400936013E00C4B9B680B4A43F400539360F9
:1021D400094B9B68084A43F480439360064B9B6811
:1021E400054A43F40043936000E000BF00BF0C378E
:1021F400BD4680BC704700BF0038024080B500AFC8
:102204005E4B5B685D4A23F4800353605B4B5B6801
:102214005A4A23F080735360584B5B68574A43F023
:1022240000735360554B5B68544A23F080635360DA
:10223400524B5B68514A23F0006353604F4B5B6819
:102244004E4A23F0805353604C4B5B684B4A43F037
:1022540000535360494B5B68484A23F08043536002
:10226400464B5B68454A23F040035360434B5B682D
:10227400424A23F080035360404B5B683F4A23F497
:10228400807353603D4B5B683C4A23F40073536096
:102294003A4B5B68394A23F480635360374B5B687D
:1022A400364A23F400635360344B5B68334A43F487
:1022B40080535360314B5B68304A23F400535360BE
:1022C4002E4B5B682D4A23F4804353602B4B5B6891
:1022D4002A4A23F001035360284B5B68274A23F002
:1022E40002035360254B5B68244A23F004035360C4
:1022F400224B5B68214A43F0080353601F4B5B6821
:102304001E4A23F0100353601C4B5B681B4A23F0E6
:10231400200353600120FFF755FD0020FFF772FEF4
:102324000020FFF7EDFE154B1B68144A43F0807341
:10233400136000BF114B1B6803F00073002BF9D02E
:102344000E4B9B680D4A43F0010393600B4B9B6853
:102354000A4A43F00203936000BF084B9B68DB0802
:102364005B0003F00202054B9B689B0803F001032A
:102374001343032BF1D100BF00BF80BD00380240DE
:1023840080B483B000AF0346FB71074B1B6BFA7933
:10239400012101FA02F21146034A0B43136300BF01
:1023A4000C37BD4680BC70470038024080B483B00F
:1023B40000AF0346FB71074B1B6CFA79012101FA4C
:1023C40002F21146034A0B43136400BF0C37BD46A7
:1023D40080BC704700380240B0B588B000AFF860E8
:1023E4007B600B46FB721346BB72FB68DB6823F40D
:1023F4000042FB68DA60FB68DB6843F40052FB6868
:10240400DA60FB7A012B06D1FB68DB6843F4806257
:10241400FB68DA6005E0FB68DB6823F48062FB6834
:10242400DA60FB68DB6823F40072FB68DA60BB7A6D
:10243400002B0CD1FB681B6923F48052FB681A61E2
:10244400FB681B6923F40052FB681A610BE0FB680C
:102454001B6923F48052FB681A61FB681B6943F40F
:102464000052FB681A61386BFEF70CF804460D46FF
:102474007B681B011846FEF705F802460B4620460A
:102484002946FEF7A3F902460B46C7E90623D7E916
:102494000601FEF783FA03467B617869FDF7F2FFD4
:1024A40002460B46D7E90601FDF7AEFE02460B468F
:1024B400104619464FF00002374BFEF75DF802460E
:1024C4000B4610461946FEF769FA03463B61FB6862
:1024D40000229A60FB689A683B691A43FB689A6019
:1024E400FB689A687B691B011A43FB689A6097F83A
:1024F4003430002B0CD1FB68DB6823F08002FB68CE
:10250400DA60FB68DB6823F02002FB68DA6032E003
:1025140097F83430012B06D1FB68DB6843F0800266
:10252400FB68DA6027E097F83430022B06D1FB68A9
:10253400DB6843F02002FB68DA601CE097F8343073
:10254400032B0CD1FB68DB6843F08002FB68DA6084
:10255400FB68DB6843F02002FB68DA600BE0FB6891
:10256400DB6823F08002FB68DA60FB68DB6823F039
:102574002002FB68DA60FB68DB6843F00802FB6852
:10258400DA60FB68DB6843F00402FB68DA6000BFD2
:102594002037BD46B0BD00BF0000304080B483B0DA
:1025A40000AF78600B46FB7000BF7B681B6803F0CC
:1025B4008003002BF9D1FA787B685A6000BF0C378E
:1025C400BD4680BC7047000080B58CB002AFFFF7F9
:1025D40015FE0020FFF7D4FE1120FFF7E7FE384672
:1025E400FF23019300230093022302221A49FEF7DA
:1025F40036FB07F11C033A4607CA83E8070038464E
:10260400FF23019301230093022303221249FEF7BF
:1026140026FB07F110033A4607CA83E8070007F1CF
:10262400100307211846FEF74CFB07F11C03072192
:102634001846FEF746FB00230193084B00934FF422
:102644001653002200210648FFF7C6FE4D21044818
:10265400FFF7A4FFFAE700BF000002400048E801CA
:10266400004400400D488546AFF300800C480D49F6
:102674000D4A002302E0D458C4500433C4188C42D9
:10268400F9D30A4A0A4C002301E013600432A2423F
:10269400FBD300F011F8FFF797FFFEE700000220DC
:1026A4000000002000000020242700080000002073
:1026B40020000020FEE7000070B50D4D0D4C641B9A
:1026C400A4100026A64209D10B4D0C4C00F018F8BA
:1026D400641BA4100026A64205D170BD55F8043B26
:1026E40098470136EEE755F8043B98470136F2E780
:1026F4001C2700081C2700081C27000820270008A6
:10270400F8B500BFF8BC08BC9E467047F8B500BFDA
:08271400F8BC08BC9E467047AA
:04271C00E9010008C7
:04272000C5010008E7
:040000050800266960
:00000001FF
