:020000040800F2
:10000000000002201D0C00086D0C00086D0C00089B
:100010006D0C00086D0C00086D0C0008000000005D
:100020000000000000000000000000006D0C00084F
:100030006D0C0008000000006D0C000805020008AF
:100040006D0C00086D0C00086D0C00086D0C0008AC
:100050006D0C00086D0C00086D0C00086D0C00089C
:100060006D0C00086D0C00086D0C00086D0C00088C
:100070006D0C00086D0C00086D0C00086D0C00087C
:100080006D0C00086D0C00086D0C00086D0C00086C
:100090006D0C00086D0C00086D0C00086D0C00085C
:1000A0006D0C00086D0C00086D0C00086D0C00084C
:1000B0006D0C00086D0C00086D0C00086D0C00083C
:1000C0006D0C00086D0C00086D0C00086D0C00082C
:1000D0006D0C00086D0C00086D0C00086D0C00081C
:1000E0006D0C00086D0C00086D0C00086D0C00080C
:1000F0006D0C00086D0C00086D0C00086D0C0008FC
:100100006D0C00086D0C00086D0C00086D0C0008EB
:100110006D0C00086D0C00086D0C00086D0C0008DB
:100120006D0C00086D0C00086D0C00086D0C0008CB
:100130006D0C000800000000000000006D0C0008BD
:100140006D0C00086D0C00086D0C00086D0C0008AB
:100150006D0C00086D0C00086D0C00086D0C00089B
:100160006D0C00086D0C00086D0C00086D0C00088B
:100170006D0C00086D0C00086D0C000800000000FC
:10018000000000000000000000000000000000006F
:100190006D0C000800000000000000006D0C00085D
:1001A0000000000000000000000000006D0C0008CE
:1001B0006D0C00086D0C00086D0C00086D0C00083B
:0401C0006D0C0008BA
:1001C40010B5054C237833B9044B13B10448AFF38D
:1001D40000800123237010BD0000002000000000F7
:1001E400B80C000808B5034B1BB103490348AFF32F
:1001F400008008BD0000000004000020B80C0008C6
:1002040080B400AF044B1B680133034A136000BF82
:10021400BD4680BC704700BF1C00002080B483B082
:1002240000AF78607B68104AA2FB03239B0C0F4A43
:10023400013B13600E4B00221A600E4B1B680D4AE3
:1002440043F0040313600B4B1B680A4A23F00203B8
:100254001360084B1B68074A43F00103136000BF97
:100264000C37BD4680BC704783DE1B4314E000E0BE
:1002740018E000E010E000E080B483B000AF7860E4
:10028400074B00221A6000BF054B1B687A689A422C
:10029400FAD800BF00BF0C37BD4680BC704700BF12
:1002A4001C00002080B582B000AF78607B684FF4FA
:1002B4007A7202FB03F31846FFF7DEFF00BF08372C
:1002C400BD4680BD80B483B000AF78607B689B7905
:1002D400002B1FD17B681B681A687B681B795B0045
:1002E400012101FA03F3DB4319467B681B680A40CA
:1002F4001A607B681B681A687B681B795B00013392
:10030400012101FA03F3DB4319467B681B680A40A9
:100314001A6066E07B689B79012B1ED17B681B68A1
:100324001A687B681B795B00012101FA03F3194603
:100334007B681B680A431A607B681B681A687B68C1
:100344001B795B000133012101FA03F3DB431946F6
:100354007B681B680A401A6043E07B689B79022B28
:100364001ED17B681B681A687B681B795B000121BE
:1003740001FA03F3DB4319467B681B680A401A60E1
:100384007B681B681A687B681B795B000133012159
:1003940001FA03F319467B681B680A431A6020E0DC
:1003A4007B689B79032B1CD17B681B681A687B686C
:1003B4001B795B00012101FA03F319467B681B6872
:1003C4000A431A607B681B681A687B681B795B00A8
:1003D4000133012101FA03F319467B681B680A43C0
:1003E4001A6000BF0C37BD4680BC704780B483B030
:1003F40000AF78607B685B7A002B0ED17B681B684A
:100404005A687B681B79194601238B40DB431946E4
:100414007B681B680A405A6010E07B685B7A012B9A
:100424000CD17B681B685A687B681B7919460123C9
:100434008B4019467B681B680A435A6000BF0C371F
:10044400BD4680BC704780B483B000AF78607B68E1
:10045400DB79002B1FD17B681B68DA687B681B790A
:100464005B00012101FA03F3DB4319467B681B6837
:100474000A40DA607B681B68DA687B681B795B007A
:100484000133012101FA03F3DB4319467B681B683E
:100494000A40DA6044E07B68DB79012B1ED17B687B
:1004A4001B68DA687B681B795B00012101FA03F39E
:1004B40019467B681B680A43DA607B681B68DA6844
:1004C4007B681B795B000133012101FA03F3DB43F1
:1004D40019467B681B680A40DA6021E07B68DB7997
:1004E400022B1DD17B681B68DA687B681B795B0073
:1004F400012101FA03F3DB4319467B681B680A40B8
:10050400DA607B681B68DA687B681B795B000133FF
:10051400012101FA03F319467B681B680A43DA6078
:1005240000BF0C37BD4680BC704790B589B000AFA2
:10053400F860B96011461A460B46FB711346BB714D
:10054400BB687B61BB79BB7697F83430FB7697F850
:1005540030307B77FB793B7607F114031846FFF7BD
:10056400B1FE07F114031846FFF76DFF07F11403FA
:100574001846FFF73BFFFB681C4607F1140393E89A
:10058400070084E80700F8682437BD4690BD80B4AE
:1005940083B000AF78600B46FB70FB78012B09D168
:1005A4007B681B791A46012303FA02F27B681B68F5
:1005B4009A610AE0FB78002B07D17B681B79103322
:1005C40001229A407B681B689A6100BF0C37BD46C4
:1005D40080BC704780B483B000AF0346FB71FB79E5
:1005E400082B00F2F68001A252F823F01506000849
:1005F4004706000879060008AB060008DD06000877
:100604000F0700084107000873070008A507000842
:100614007F4B9B687E4A23F0100393607C4B9B685E
:100624007B4A23F020039360794B9B68784A23F03C
:1006340040039360764B9B68754A23F08003936074
:10064400E0E0734B9B68724A23F010039360704B95
:100654009B686F4A23F0200393606D4B9B686C4A40
:1006640023F0400393606A4B9B68694A43F080031C
:100674009360C7E0664B9B68654A43F01003936040
:10068400634B9B68624A23F020039360604B9B6832
:100694005F4A23F0400393605D4B9B685C4A43F0E0
:1006A40080039360AEE05A4B9B68594A23F01003D1
:1006B4009360574B9B68564A43F020039360544B16
:1006C4009B68534A23F040039360514B9B68504A04
:1006D40043F08003936095E04D4B9B684C4A43F094
:1006E400100393604A4B9B68494A43F0200393608C
:1006F400474B9B68464A23F040039360444B9B68F6
:10070400434A43F0800393607CE0414B9B68404A3A
:1007140023F0100393603E4B9B683D4A23F0200373
:1007240093603B4B9B683A4A43F040039360384BD9
:100734009B68374A43F08003936063E0344B9B68C3
:10074400334A43F010039360314B9B68304A23F0E3
:10075400200393602E4B9B682D4A43F04003936023
:100764002B4B9B682A4A43F0800393604AE0284B52
:100774009B68274A23F010039360254B9B68244A07
:1007840043F020039360224B9B68214A43F04003CB
:1007940093601F4B9B681E4A43F08003936031E0D3
:1007A4001B4B9B681A4A43F010039360184B9B68D9
:1007B400174A43F020039360154B9B68144A43F097
:1007C40040039360124B9B68114A43F0800393608B
:1007D40018E00F4B9B680E4A23F0100393600C4BF8
:1007E4009B680B4A23F020039360094B9B68084ADB
:1007F40023F040039360064B9B68054A23F0800373
:10080400936000BF00BF0C37BD4680BC704700BF7B
:100814000038024080B483B000AF0346FB71FB791B
:10082400042B6CD801A252F823F000BF450800083D
:100834006B08000891080008B7080008DD080008E4
:10084400324B9B68314A23F4806393602F4B9B683F
:100854002E4A23F4006393602C4B9B682B4A23F4A9
:10086400805393604CE0294B9B68284A23F48063AF
:100874009360264B9B68254A23F400639360234BC3
:100884009B68224A43F48053936039E01F4B9B6872
:100894001E4A43F4806393601C4B9B681B4A23F4F9
:1008A40000639360194B9B68184A43F48053936028
:1008B40026E0164B9B68154A23F480639360134B20
:1008C4009B68124A43F400639360104B9B680F4A81
:1008D40043F48053936013E00C4B9B680B4A43F43E
:1008E40080639360094B9B68084A43F400639360F8
:1008F400064B9B68054A43F48053936000E000BFB5
:1009040000BF0C37BD4680BC704700BF00380240B2
:1009140080B483B000AF0346FB71FB79042B6CD821
:1009240001A252F823F000BF41090008670900083A
:100934008D090008B3090008D9090008324B9B68E7
:10094400314A23F4005393602F4B9B682E4A23F4BF
:10095400804393602C4B9B682B4A23F400439360A1
:100964004CE0294B9B68284A23F400539360264BA0
:100974009B68254A23F480439360234B9B68224A57
:1009840043F40043936039E01F4B9B681E4A43F4D1
:10099400005393601C4B9B681B4A23F48043936071
:1009A400194B9B68184A43F40043936026E0164BA6
:1009B4009B68154A23F400539360134B9B68124AB7
:1009C40043F480439360104B9B680F4A43F4004305
:1009D400936013E00C4B9B680B4A43F40053936001
:1009E400094B9B68084A43F480439360064B9B6819
:1009F400054A43F40043936000E000BF00BF0C3796
:100A0400BD4680BC704700BF0038024080B500AFCF
:100A14005F4B5B685E4A23F4800353605C4B5B6806
:100A24005B4A23F080735360594B5B68584A43F028
:100A340000735360564B5B68554A23F080635360E0
:100A4400534B5B68524A23F000635360504B5B681E
:100A54004F4A23F0805353604D4B5B684C4A43F03C
:100A6400005353604A4B5B68494A23F08043536008
:100A7400474B5B68464A23F040035360444B5B6832
:100A8400434A23F080035360414B5B68404A23F49C
:100A9400807353603E4B5B683D4A23F4007353609C
:100AA4003B4B5B683A4A23F480635360384B5B6882
:100AB400374A23F400635360354B5B68344A43F48C
:100AC40080535360324B5B68314A23F400535360C4
:100AD4002F4B5B682E4A23F4804353602C4B5B6896
:100AE4002B4A23F001035360294B5B68284A23F007
:100AF40002035360264B5B68254A23F004035360CA
:100B0400234B5B68224A43F008035360204B5B6825
:100B14001F4A23F0100353601D4B5B681C4A23F0EB
:100B2400200353600120FFF755FD0020FFF772FEFC
:100B34000020FFF7EDFE164B1B68154A43F0807347
:100B4400136000BF124B1B685B0E03F00103002B04
:100B5400F8D00F4B9B680E4A43F0010393600C4B93
:100B64009B680B4A43F00203936000BF084B9B68E9
:100B7400DB085B0003F00202054B9B689B0803F053
:100B840001031343032BF1D100BF00BF80BD00BF9D
:100B94000038024080B483B000AF0346FB71074BBA
:100BA4001B6BFA79012101FA02F21146034A0B4345
:100BB400136300BF0C37BD4680BC70470038024049
:100BC40080B586B002AFFFF721FF0020FFF7E2FFF8
:100BD4000F48FFF723FB381D0023019300230093E4
:100BE400012305220B49FFF7A0FC3B1D01211846F8
:100BF400FFF7CDFC4FF47A70FFF754FB3B1D002147
:100C04001846FFF7C4FC4FF47A70FFF74BFBECE790
:100C14000048E801000002400D488546AFF300801B
:100C24000C480D490D4A002302E0D458C450043343
:100C3400C4188C42F9D30A4A0A4C002301E0136019
:100C44000432A242FBD300F011F8FFF7B9FFFEE72C
:100C5400000002200000002000000020D80C000842
:100C64000000002020000020FEE7000070B50D4DBC
:100C74000D4C641BA4100026A64209D10B4D0C4C4C
:100C840000F018F8641BA4100026A64205D170BD1C
:100C940055F8043B98470136EEE755F8043B98476E
:100CA4000136F2E7D00C0008D00C0008D00C000884
:100CB400D40C0008F8B500BFF8BC08BC9E467047C9
:0C0CC400F8B500BFF8BC08BC9E467047A5
:040CD000E90100082E
:040CD400C50100084E
:0400000508000C1DC6
:00000001FF
