:020000040800F2
:1000000000000220C90D0008190E0008190E000892
:10001000190E0008190E0008190E00080000000053
:10002000000000000000000000000000190E0008A1
:10003000190E000800000000190E00080502000853
:10004000190E0008190E0008190E0008190E0008F4
:10005000190E0008190E0008190E0008190E0008E4
:10006000190E0008190E0008190E0008190E0008D4
:10007000190E0008190E0008190E0008190E0008C4
:10008000190E0008190E0008190E0008190E0008B4
:10009000190E0008190E0008190E0008190E0008A4
:1000A000190E0008190E0008190E0008190E000894
:1000B000A50D0008190E0008190E0008190E0008F9
:1000C000190E0008190E0008190E0008190E000874
:1000D000190E0008190E0008190E0008190E000864
:1000E000190E0008190E0008190E0008190E000854
:1000F000190E0008190E0008190E0008190E000844
:10010000190E0008190E0008190E0008190E000833
:10011000190E0008190E0008190E0008190E000823
:10012000190E0008190E0008190E0008190E000813
:10013000190E00080000000000000000190E000861
:10014000190E0008190E0008190E0008190E0008F3
:10015000190E0008190E0008190E0008190E0008E3
:10016000190E0008190E0008190E0008190E0008D3
:10017000190E0008190E0008190E000800000000F2
:10018000000000000000000000000000000000006F
:10019000190E00080000000000000000190E000801
:1001A000000000000000000000000000190E000820
:1001B000190E0008190E0008190E0008190E000883
:0401C000190E00080C
:1001C40010B5054C237833B9044B13B10448AFF38D
:1001D40000800123237010BD0000002000000000F7
:1001E400640E000808B5034B1BB103490348AFF381
:1001F400008008BD0000000004000020640E000818
:1002040080B400AF044B1B680133034A136000BF82
:10021400BD4680BC704700BF1C00002080B483B082
:1002240000AF78607B689B79002B1FD17B681B68CB
:100234001A687B681B795B00012101FA03F3DB4335
:1002440019467B681B680A401A607B681B681A6839
:100254007B681B795B000133012101FA03F3DB4363
:1002640019467B681B680A401A6066E07B689B79C4
:10027400012B1ED17B681B681A687B681B795B00A5
:10028400012101FA03F319467B681B680A431A60CB
:100294007B681B681A687B681B795B00013301214A
:1002A40001FA03F3DB4319467B681B680A401A60B2
:1002B40043E07B689B79022B1ED17B681B681A681C
:1002C4007B681B795B00012101FA03F3DB431946C8
:1002D4007B681B680A401A607B681B681A687B6825
:1002E4001B795B000133012101FA03F319467B6892
:1002F4001B680A431A6020E07B689B79032B1CD19E
:100304007B681B681A687B681B795B00012101FA12
:1003140003F319467B681B680A431A607B681B68F1
:100324001A687B681B795B000133012101FA03F32E
:1003340019467B681B680A431A6000BF0C37BD4628
:1003440080BC704780B483B000AF78607B685B7A10
:10035400002B0ED17B681B685A687B681B79194691
:1003640001238B40DB4319467B681B680A405A60B3
:1003740010E07B685B7A012B0CD17B681B685A68A0
:100384007B681B79194601238B4019467B681B68DF
:100394000A435A6000BF0C37BD4680BC704780B426
:1003A40083B000AF78607B68DB79002B1FD17B685A
:1003B4001B68DA687B681B795B00012101FA03F38F
:1003C400DB4319467B681B680A40DA607B681B685C
:1003D400DA687B681B795B000133012101FA03F3BE
:1003E400DB4319467B681B680A40DA6044E07B689B
:1003F400DB79012B1ED17B681B68DA687B681B796B
:100404005B00012101FA03F319467B681B680A4368
:10041400DA607B681B68DA687B681B795B000133F0
:10042400012101FA03F3DB4319467B681B680A4088
:10043400DA6021E07B68DB79022B1DD17B681B68C5
:10044400DA687B681B795B00012101FA03F3DB4363
:1004540019467B681B680A40DA607B681B68DA68A7
:100464007B681B795B000133012101FA03F3194610
:100474007B681B680A43DA6000BF0C37BD4680BC4A
:10048400704790B589B000AFF860B96011461A465C
:100494000B46FB711346BB71BB687B61BB79BB76B2
:1004A40097F83430FB7697F830307B77FB793B76DE
:1004B40007F114031846FFF7B1FE07F114031846B9
:1004C400FFF76DFF07F114031846FFF73BFFFB68C6
:1004D4001C4607F1140393E8070084E80700F86852
:1004E4002437BD4690BD80B483B000AF78600B461E
:1004F400FB70FB78012B09D17B681B791A46012319
:1005040003FA02F27B681B689A610AE0FB78002B0D
:1005140007D17B681B79103301229A407B681B68E2
:100524009A6100BF0C37BD4680BC704790B488B058
:1005340000AFF860B96011461A460B46FB711346CA
:10054400BB71BB687B61FB793B77BB797B77BB8DE8
:100554007B8397F828307B76FB681C4607F11403ED
:1005640093E8070084E80700F8682037BD4690BC8C
:100574007047000080B483B000AF78607B681B686C
:100584001A687B681B6822F001021A607B681B688A
:100594001A687B681B6822F002021A607B681B6879
:1005A4001A687B681B6842F004021A607B681B6847
:1005B4001A687B681B6822F008021A607B681B6853
:1005C4001A687B681B6842F010021A607B681B681B
:1005D4001A687B681B6822F020021A607B681B681B
:1005E4001A687B681B6822F040021A607B681B68EB
:1005F4001A687B681B6842F080021A607B685B7A29
:10060400012B08D17B681B68DA687B681B6842F0A1
:100614000102DA600FE07B685B7A002B08D17B680B
:100624001B68DA687B681B6822F00102DA6002E06A
:100634007B68FF225A727B681B68294A934204D064
:100644007B681B68274A934205D17B681B684FF679
:10065400FF725A6214E07B681B68B3F1804F04D0C8
:100664007B681B68204A934205D17B681B684FF066
:10067400FF325A6204E07B681B684FF0FF325A6213
:100684007B681B7A002B0DD17B685B795B08DAB23F
:100694007B681B689A627B68DB885A007B681B68EE
:1006A400DA6217E07B681B7A012B10D17B685B79D7
:1006B4001A464FF4FA7303FB02F27B681B689A62D2
:1006C4007B68DB885A007B681B68DA6202E07B681F
:1006D400FF221A7200BF0C37BD4680BC704700BFB2
:1006E40000040040000800400010004080B483B0C3
:1006F40000AF78607B681B681A687B681B6842F0EF
:1007040001021A6000BF0C37BD4680BC7047000070
:1007140080B483B000AF0346FB71FB79082B00F271
:10072400F68001A252F823F051070008830700085D
:10073400B5070008E7070008190800084B08000877
:100744007D080008AF080008E10800087F4B9B689B
:100754007E4A23F0100393607C4B9B687B4A23F012
:1007640020039360794B9B68784A23F0400393609D
:10077400764B9B68754A23F080039360E0E0734BEB
:100784009B68724A23F010039360704B9B686F4A16
:1007940023F0200393606D4B9B686C4A23F0400365
:1007A40093606A4B9B68694A43F080039360C7E097
:1007B400664B9B68654A43F010039360634B9B68E8
:1007C400624A23F020039360604B9B685F4A23F0E6
:1007D400400393605D4B9B685C4A43F080039360E5
:1007E400AEE05A4B9B68594A23F010039360574B71
:1007F4009B68564A43F020039360544B9B68534ACA
:1008040023F040039360514B9B68504A43F08003AC
:10081400936095E04D4B9B684C4A43F01003936002
:100824004A4B9B68494A43F020039360474B9B68BB
:10083400464A23F040039360444B9B68434A43F089
:10084400800393607CE0414B9B68404A23F0100393
:1008540093603E4B9B683D4A23F0200393603B4BDF
:100864009B683A4A43F040039360384B9B68374A8D
:1008740043F08003936063E0344B9B68334A43F056
:1008840010039360314B9B68304A23F0200393603C
:100894002E4B9B682D4A43F0400393602B4B9B687F
:1008A4002A4A43F0800393604AE0284B9B68274A16
:1008B40023F010039360254B9B68244A43F02003E4
:1008C4009360224B9B68214A43F0400393601F4B83
:1008D4009B681E4A43F08003936031E01B4B9B6886
:1008E4001A4A43F010039360184B9B68174A43F06D
:1008F40020039360154B9B68144A43F040039360B4
:10090400124B9B68114A43F08003936018E00F4B2D
:100914009B680E4A23F0100393600C4B9B680B4AB0
:1009240023F020039360094B9B68084A23F040039B
:100934009360064B9B68054A23F08003936000BFD5
:1009440000BF0C37BD4680BC704700BF0038024072
:1009540080B483B000AF0346FB71FB79042B6CD8E1
:1009640001A252F823F000BF81090008A70900087A
:10097400CD090008F3090008190A0008324B9B68E6
:10098400314A23F4806393602F4B9B682E4A23F4EF
:10099400006393602C4B9B682B4A23F48053936031
:1009A4004CE0294B9B68284A23F480639360264BD0
:1009B4009B68254A23F400639360234B9B68224A77
:1009C40043F48053936039E01F4B9B681E4A43F401
:1009D400806393601C4B9B681B4A23F40063936001
:1009E400194B9B68184A43F48053936026E0164BD6
:1009F4009B68154A23F480639360134B9B68124AE7
:100A040043F400639360104B9B680F4A43F4805394
:100A1400936013E00C4B9B680B4A43F48063936030
:100A2400094B9B68084A43F400639360064B9B6838
:100A3400054A43F48053936000E000BF00BF0C37C5
:100A4400BD4680BC704700BF0038024080B483B00C
:100A540000AF0346FB71FB79042B6CD801A252F85A
:100A640023F000BF7D0A0008A30A0008C90A000891
:100A7400EF0A0008150B0008324B9B68314A23F437
:100A8400005393602F4B9B682E4A23F4804393605A
:100A94002C4B9B682B4A23F4004393604CE0294B76
:100AA4009B68284A23F400539360264B9B68254A8D
:100AB40023F480439360234B9B68224A43F400430E
:100AC400936039E01F4B9B681E4A43F400539360C4
:100AD4001C4B9B681B4A23F480439360194B9B680F
:100AE400184A43F40043936026E0164B9B68154A6A
:100AF40023F400539360134B9B68124A43F48043DE
:100B04009360104B9B680F4A43F40043936013E0D7
:100B14000C4B9B680B4A43F400539360094B9B684E
:100B2400084A43F480439360064B9B68054A43F4A8
:100B34000043936000E000BF00BF0C37BD4680BC9B
:100B4400704700BF0038024080B500AF5E4B5B6861
:100B54005D4A23F4800353605B4B5B685A4A23F07D
:100B640080735360584B5B68574A43F0007353607B
:100B7400554B5B68544A23F080635360524B5B6867
:100B8400514A23F0006353604F4B5B684E4A23F095
:100B9400805353604C4B5B684B4A43F000535360A3
:100BA400494B5B68484A23F080435360464B5B687B
:100BB400454A23F040035360434B5B68424A23F0A9
:100BC40080035360404B5B683F4A23F48073536057
:100BD4003D4B5B683C4A23F4007353603A4B5B68BB
:100BE400394A23F480635360374B5B68364A23F4F5
:100BF40000635360344B5B68334A43F4805353605F
:100C0400314B5B68304A23F4005353602E4B5B68CE
:100C14002D4A23F4804353602B4B5B682A4A23F00C
:100C240001035360284B5B68274A23F00203536097
:100C3400254B5B68244A23F004035360224B5B6812
:100C4400214A43F0080353601F4B5B681E4A23F09C
:100C5400100353601C4B5B681B4A23F02003536052
:100C64000120FFF755FD0020FFF772FE0020FFF77B
:100C7400EDFE154B1B68144A43F08073136000BFEC
:100C8400114B1B6803F00073002BF9D00E4B9B68CB
:100C94000D4A43F0010393600B4B9B680A4A43F0EF
:100CA4000203936000BF084B9B68DB085B0003F002
:100CB4000202054B9B689B0803F001031343032BBB
:100CC400F1D100BF00BF80BD0038024080B483B0C2
:100CD40000AF0346FB71074B1B6BFA79012101FA44
:100CE40002F21146034A0B43136300BF0C37BD469F
:100CF40080BC70470038024080B483B000AF034624
:100D0400FB71074B1B6CFA79012101FA02F21146BF
:100D1400034A0B43136400BF0C37BD4680BC7047C5
:100D24000038024090B587B002AFFFF70DFF0020F6
:100D3400FFF7CCFF0020FFF7DFFF164C38464FF4D7
:100D44007A73019320230093002301224FF0804102
:100D5400FFF7ECFB3B4693E8070084E807000E4CE2
:100D640038460023019300230093012305220B49F5
:100D7400FFF787FB3B4693E8070084E80700054834
:100D8400FFF7F8FB0348FFF7B1FC00210248FFF727
:100D9400AAFBFAE7200000202C00002000000240FB
:100DA40080B500AF01210648FFF79DFB4FF080435B
:100DB4001B694FF0804203F00103136100BF80BD43
:100DC4002C0000200D488546AFF300800C480D49E7
:100DD4000D4A002302E0D458C4500433C4188C4292
:100DE400F9D30A4A0A4C002301E013600432A242F8
:100DF400FBD300F011F8FFF795FFFEE70000022097
:100E04000000002000000020840E000800000020E4
:100E140038000020FEE7000070B50D4D0D4C641B3A
:100E2400A4100026A64209D10B4D0C4C00F018F872
:100E3400641BA4100026A64205D170BD55F8043BDE
:100E440098470136EEE755F8043B98470136F2E738
:100E54007C0E00087C0E00087C0E0008800E000842
:100E6400F8B500BFF8BC08BC9E467047F8B500BF93
:080E7400F8BC08BC9E46704763
:040E7C00E901000880
:040E8000C5010008A0
:0400000508000DC919
:00000001FF
